:020000002528B1
:10000800FF00030E8301A5000A08A4008A01240842
:0C0018008A00250E8300FF0E7F0E0900F9
:0E0024008312031323088A00220882000800BA
:1000320012208A110A128000840AA20A0319A30A52
:08004200F003031D192808005A
:10004A0083120313A001A1013C280530A000512806
:10005A000130A00051280230A00051280330A0002E
:10006A0051280430A00051280130A100512821084C
:10007A00013A03192A282108023A03192D282108CE
:10008A00033A031930282108043A031933282108AE
:0C009A00053A0319362839282928522875
:02400E004A2F37
:00000001FF
